:100000000C943A000C94CA0D0C94CA0D0C94CA0DB1
:100010000C94CA0D0C94CA0D0C94CA0D0C94CA0D04
:100020000C94CA0D0C94CA0D0C94CA0D0C94CA0DF4
:100030000C94CA0D0C94CA0D0C94CA0D0C94CA0DE4
:100040000C94CA0D0C94CA0D0C94CA0D0C94CA0DD4
:100050000C94CA0D0C94CA0D0C94CA0D0C94CA0DC4
:100060000C94CA0D0C94CA0D0100011F80011F01E0
:1000700041001B9811241FBECFEFD8E0DEBFCDBFDB
:10008000E8E6F0E040E017C0B591A59135912591E3
:10009000059107FD0CC095918591EF01F92FE82F8F
:1000A00005900D92A217B307D9F7FE0104C01D9267
:1000B000A217B307E1F7E437F40731F70E940E0700
:0800C0000C946200F894FFCFDC
:1000C80000000000003E5B4F5B3E3E6B4F6B3E1CEA
:1000D8003E7C3E1C183C7E3C181C577D571C1C5E01
:1000E8007F5E1C00183C1800FFE7C3E7FF001824D8
:1000F8001800FFE7DBE7FF30483A060E2629792982
:1001080026407F050507407F05253F5A3CE73C5AB6
:100118007F3E1C1C08081C1C3E7F14227F22145F93
:100128005F005F5F06097F017F006689956A6060EE
:1001380060606094A2FFA29408047E040810207EE8
:10014800201008082A1C08081C2A08081E1010106D
:10015800100C1E0C1E0C30383E3830060E3E0E06B3
:10016800000000000000005F000000070007001406
:100178007F147F14242A7F2A1223130864623649C5
:100188005620500008070300001C224100004122AD
:100198001C002A1C7F1C2A08083E080800807030B2
:1001A8000008080808080000606000201008040221
:1001B8003E5149453E00427F400072494949462127
:1001C80041494D331814127F1027454545393C4A9B
:1001D80049493141211109073649494936464949B2
:1001E800291E0000140000004034000000081422FA
:1001F8004114141414140041221408020159090668
:100208003E415D594E7C1211127C7F494949363E68
:10021800414141227F4141413E7F494949417F094E
:100228000909013E414151737F0808087F00417F59
:1002380041002040413F017F081422417F40404057
:10024800407F021C027F7F0408107F3E4141413EEF
:100258007F090909063E4151215E7F091929462671
:100268004949493203017F01033F4040403F1F2075
:1002780040201F3F4038403F63140814630304784C
:1002880004036159494D43007F414141020408106C
:1002980020004141417F04020102044040404040A7
:1002A800000307080020545478407F284444383815
:1002B80044444428384444287F3854545418000887
:1002C8007E090218A4A49C787F0804047800447D61
:1002D80040002040403D007F1028440000417F40FE
:1002E800007C047804787C08040478384444443852
:1002F800FC1824241818242418FC7C080404084832
:100308005454542404043F44243C4040207C1C2082
:1003180040201C3C4030403C44281028444C9090DD
:10032800907C4464544C4400083641000000770037
:1003380000004136080002010204023C2623263C44
:100348001EA1A161123A4040207A385454555921CF
:1003580055557941225454784221555478402054B7
:100368005579400C1E527212395555555939545405
:10037800545939555454580000457C410002457D74
:10038800420001457C407D1211127DF0282528F09D
:100398007C545545002054547C547C0A097F4932CA
:1003A800494949323A4444443A324A4848303A4141
:1003B80041217A3A42402078009DA0A07D3D4242EA
:1003C800423D3D4040403D3C24FF2424487E494373
:1003D800662B2FFC2F2BFF0929F620C0887E0903E6
:1003E80020545479410000447D413048484A32380D
:1003F8004040227A007A0A0A727D0D19317D262939
:10040800292F28262929292630484D402038080830
:10041800080808080808382F10C8ACBA2F10283464
:10042800FA00007B000008142A142222142A140857
:10043800AA005500AAAA55AA55AA000000FF001054
:100448001010FF00141414FF001010FF00FF10100C
:10045800F010F0141414FC001414F700FF0000FF4F
:1004680000FF1414F404FC141417101F10101F10AC
:100478001F1414141F00101010F0000000001F10AB
:100488001010101F10101010F010000000FF1010B6
:1004980010101010101010FF10000000FF140000C2
:1004A800FF00FF00001F10170000FC04F4141417CD
:1004B80010171414F404F40000FF00F714141414B3
:1004C800141414F700F7141414171410101F101F25
:1004D800141414F4141010F010F000001F101F0072
:1004E80000001F14000000FC140000F010F01010B1
:1004F800FF10FF141414FF141010101F0000000048
:10050800F010FFFFFFFFFFF0F0F0F0F0FFFFFF003B
:1005180000000000FFFF0F0F0F0F0F38444438444E
:10052800FC4A4A4A347E02020606027E027E0263C2
:10053800554941633844443C04407E201E2006024D
:100548007E020299A5E7A5991C2A492A1C4C72012A
:10055800724C304A4D4D303048784830BC625A466B
:100568003D3E494949007E0101017E2A2A2A2A2A5C
:1005780044445F444440514A444040444A51400046
:1005880000FF0103E080FF000008086B6B083612CB
:10059800362436060F090F06000018180000001050
:1005A80010003040FF0101001F01011E00191D1736
:0B05B80012003C3C3C3C000000000036
:1005C3006D6F6465202D2000636F6E7374616E74AC
:1005D30020766F6C74616765007365740030302E2C
:1005E3003030760061637475616C0A0030302E30F0
:1005F300300030302E3030610061637475616C00FF
:100604002F923F924F926F927F928F929F92AF92CE
:10061400BF92CF92DF92EF92FF920F931F93CF93EB
:10062400DF93CDB7DEB762970FB6F894DEBF0FBE87
:10063400CDBF6C013A01862E7901FC011086178228
:10064400848181FFE7C19E012F5F3F4F3D872C8747
:10065400C901A0E8888B998BAA8B9FE3992EF3019B
:10066400849187FC8081882309F4D0C1482D9301AB
:100674002F5F3F4F4F4F853219F03901842E0AC046
:10068400F901849147FD808192E0690E711C811CFF
:10069400853229F4B60190E00E94CD0BE0CFB12C55
:1006A40000E010E01032A0F48B3269F030F48032B4
:1006B40059F0833269F410612CC08D3239F08033E3
:1006C40039F4116026C01260146023C0186021C080
:1006D40017FD29C090ED980F9A3078F416FF06C0E4
:1006E400AAE0BA9E900D1124B92E13C0EAE00E9F21
:1006F400900D1124092F10620CC08E3221F416FDC6
:1007040085C1106406C08C3611F4106802C08836A6
:1007140051F4F301849187FC8081FFEF6F1A7F0A03
:100724008F0A8111BFCF982F9F7D9554933028F461
:1007340024E0E20EF11C99820FC0833631F0833736
:1007440091F0833509F063C027C0F7018081898364
:1007540097012E5F3F4F7901288839884A88AA2457
:10076400A394B12C17C0A7014D5F5F4F5F874E87DD
:10077400F70120803180428016FF03C04B2D50E0EA
:1007840002C04FEF5FEF842DB1010E94DB0C5C01CE
:10079400EE84FF841F7718C097012D5F3F4F3F877A
:1007A4002E87F70120803180428016FF03C04B2D35
:1007B40050E002C04FEF5FEF842DB1010E94DB0CCB
:1007C4005C011068EE84FF8413FD1DC0802F90E04F
:1007D400A816B906C0F4B60180E290E00E94CD0BE1
:1007E4000150F4CFF101849147FC8081FFEF2F1A6F
:1007F4003F0A4F0AB60190E00E94CD0B011101504F
:1008040021E0A21AB108A114B10461F7F5C084363D
:1008140011F0893671F5F70117FF08C06081718105
:100824008281938197012C5F3F4F09C06081718160
:10083400072E000C880B990B97012E5F3F4F79010F
:100844001F76312E97FF0AC090958095709561951B
:100854007F4F8F4F9F4F312F3068332E2AE030E087
:10086400AE014F5F5F4F0E948B0A482E4C85441A9D
:100874004AC0853729F41F7EA12E2AE030E025C026
:10088400512F597FA52E8F36C1F018F4883579F091
:10089400BDC0803719F0883721F0B8C0852F80613A
:1008A400A82EA4FE0DC09A2D9460A92E09C014FF91
:1008B4000AC0A52FA660AA2E06C028E030E005C015
:1008C40020E130E002C020E132E0F701A7FE08C0D9
:1008D4006081718182819381A7014C5F5F4F07C062
:1008E4006081718180E090E0A7014E5F5F4F7A01E3
:1008F400AE014F5F5F4F0E948B0A482E5C85451AFC
:100904008A2D8F77382E36FE0DC0932D9E7FA92E0B
:100914004B1458F434FE0BC032FC09C0A32DAE7E38
:10092400AA2E05C0142DA32C03C0142D01C01B2D09
:10093400A4FE0EC0FE01E40DF11D8081803321F47C
:10094400EA2DE97EAE2E08C0A2FE05C01E5F04C0DB
:100954008A2D867809F01F5FA3FC11C0A0FE06C093
:10096400101788F4040DB02EB11A0EC0101760F4DD
:10097400B60180E290E00E94CD0B1F5FF7CF101705
:1009840018F4011B02C0B42C00E0A4FE10C0B60190
:1009940080E390E00E94CD0BA2FE17C0A1FC03C02F
:1009A40088E790E002C088E590E0B6010CC08A2D8B
:1009B400867859F0A1FE02C08BE201C080E2A7FC58
:1009C4008DE2B60190E00E94CD0B4B1438F4B601D1
:1009D40080E390E00E94CD0BBA94F7CF4A94E1E013
:1009E400F0E0EC0FFD1FE40DF11D8081B60190E0F5
:1009F4000E94CD0B4110F2CF002309F430CEB60192
:100A040080E290E00E94CD0B0150F6CFF601878181
:100A1400908502C08FEF9FEF62960FB6F894DEBF09
:100A24000FBECDBFDF91CF911F910F91FF90EF903B
:100A3400DF90CF90BF90AF909F908F907F906F90FA
:080A44004F903F902F900895A0
:100A4C00CF92DF92EF92CF93DF938FE191E090936F
:100A5C001C0180931B0164E070E084E090E00E9434
:100A6C009F0D8FE39FE10197F1F700C0000060E05C
:100A7C0070E080EE97E00E94A80D8FE39FE1019754
:100A8C00F1F700C0000082E00E94BA0D8FE39FE1F5
:100A9C000197F1F700C0000083EC95E0A0E0AF9364
:100AAC009F938F930E94110D8FE39FE10197F1F7B4
:100ABC0000C0000060E070E080E098EF0E94A80D9C
:100ACC008FE39FE10197F1F700C0000082E00E94E4
:100ADC00BA0D8FE39FE10197F1F700C000008BEC9A
:100AEC0095E0A0E0AF939F938F930E94110D8FE33D
:100AFC009FE10197F1F700C0000068E270E084E02C
:100B0C0090E00E949F0D8FE39FE10197F1F700C0E9
:100B1C00000060E070E08FEF97E00E94A80D8FE37B
:100B2C009FE10197F1F700C0000084E00E94BA0D2C
:100B3C008FE39FE10197F1F700C0000086E50E946A
:100B4C00390B8FE39FE10197F1F700C00000809112
:100B5C000201909103010696909303018093020188
:100B6C0083E00E94BA0D8FE39FE10197F1F700C07B
:100B7C0000006CED75E080E00E94850B8FE39FE137
:100B8C000197F1F700C000008091020190910301E0
:100B9C000C9690930301809302010E94280D80EE25
:100BAC0095E0A0E0AF939F938F930E94110D8FE37C
:100BBC009FE10197F1F700C0000068E770E084E066
:100BCC0090E00E949F0D8FE39FE10197F1F700C029
:100BDC00000084E00E94BA0D8FE39FE10197F1F7CA
:100BEC0000C0000086E50E94390B8FE39FE101975E
:100BFC00F1F700C00000809102019091030106966C
:100C0C00909303018093020183E00E94BA0D8FE35D
:100C1C009FE10197F1F700C0000067EE75E080E0FE
:100C2C000E94850B8FE39FE10197F1F700C0000054
:100C3C000E94390D85E00E94BA0D0F2EFFEECF2ECB
:100C4C00F5E0DF2EF0E0EF2EF02DEF92DF92CF9259
:100C5C000E94110D8FE39FE10197F1F700C0000096
:100C6C0068E270E084EA90E00E949F0D8FE39FE1C0
:100C7C000197F1F700C0000060E070E080EE9FEF9C
:100C8C000E94A80D8FE39FE10197F1F700C00000CF
:100C9C0084E00E94BA0D8FE39FE10197F1F700C049
:100CAC00000089E40E94390B8FE39FE10197F1F773
:100CBC0000C0000080910201909103010696909370
:100CCC0003018093020183E00E94BA0D8FE39FE140
:100CDC000197F1F700C000008CED95E0A0E0AF9318
:100CEC009F938F930E94110D8FE39FE10197F1F772
:100CFC0000C00000C4EAD0E0D0931501C0931401E9
:100D0C00809102019091030184969093030180934A
:100D1C0002010E944A0D83E00E94BA0D85EF95E016
:100D2C00A0E0AF939F938F930E94110D8FE39FE1EF
:100D3C000197F1F700C0000068E770E084EA90E0EA
:100D4C000E949F0D8FE39FE10197F1F700C0000017
:100D5C0084E00E94BA0D8FE39FE10197F1F700C088
:100D6C00000089E40E94390B8FE39FE10197F1F7B2
:100D7C0000C00000809102019091030106969093AF
:100D8C0003018093020183E00E94BA0D8FE39FE17F
:100D9C000197F1F700C000008CEF95E0A0E0AF9355
:100DAC009F938F930E94110D8FE39FE10197F1F7B1
:100DBC0000C00000D0931501C09314010E945B0D7C
:100DCC008091020190910301C0969093030180934E
:100DDC00020185E00E94BA0DEF92DF92CF920E9441
:100DEC00110D9FEF27EA81E6915020408040E1F7FA
:100DFC0000C000008DB79EB748960FB6F8949EBF02
:100E0C000FBE8DBFDF91CF91EF90DF90CF90089503
:100E1C008EE291E090931C0180931B010E94470885
:100E2C0080E090E00E94090C2FE38DE093E02150CC
:100E3C0080409040E1F700C0000083E00E94E90A86
:100E4C0083EF91E00197F1F700C000000E942605A6
:100E5C0060E070E08FEF97E00E94A80D60910C01AC
:100E6C0070910D0180910E0190910F010E949F0DC8
:100E7C0083EF91E00197F1F700C0000083E00E943E
:100E8C00BA0D81E30E94390B83EF91E00197F1F7E2
:100E9C0000C0000080E30E94390B83EF91E00197C2
:100EAC00F1F700C000008EE20E94390B83EF91E055
:100EBC000197F1F700C0000082E30E94390B83EF29
:100ECC0091E00197F1F700C0000083E30E94390B19
:100EDC0083EF91E00197F1F700C0000060911001E1
:100EEC007091110180910801909109010E949F0D50
:100EFC0083EF91E00197F1F700C0000085E00E94BC
:100F0C00BA0D81E30E94390B83EF91E00197F1F761
:100F1C0000C0000080E30E94390B83EF91E0019741
:100F2C00F1F700C000008EE20E94390B83EF91E0D4
:100F3C000197F1F700C0000082E30E94390B83EFA8
:100F4C0091E00197F1F700C0000083E30E94390B98
:100F5C0083EF91E00197F1F700C000009FE72AE1D1
:100F6C0086E0915020408040E1F700C00000609185
:100F7C000C0170910D0180910E0190910F010E9456
:100F8C009F0D83EF91E00197F1F700C0000083E023
:100F9C000E94BA0D89E30E94390B83EF91E001970F
:100FAC00F1F700C0000080E30E94390B83EF91E061
:100FBC000197F1F700C000008EE20E94390B83EF1D
:100FCC0091E00197F1F700C0000084E30E94390B17
:100FDC0083EF91E00197F1F700C0000085E30E94D8
:100FEC00390B83EF91E00197F1F700C0000060919D
:100FFC0010017091110180910801909109010E94DA
:10100C009F0D83EF91E00197F1F700C0000085E0A0
:10101C000E94BA0D89E30E94390B83EF91E001978E
:10102C00F1F700C0000080E30E94390B83EF91E0E0
:10103C000197F1F700C000008EE20E94390B83EF9C
:10104C0091E00197F1F700C0000084E30E94390B96
:10105C0083EF91E00197F1F700C0000085E30E9457
:10106C00390B83EF91E00197F1F700C000009FE787
:10107C002AE186E0915020408040E1F700C000005A
:02108C00E7CEAD
:10108E000E94B10D0E94890D0E947B0C81E00E948E
:10109E007C0D2FEF83ED90E3215080409040E1F7DF
:1010AE0000C000008BEC0E947C0D89E30E946C0D49
:1010BE008CE20E946C0D80E00E946C0D84E30E9415
:1010CE006C0D82E00E946C0D8FEC0E947C0D80E016
:1010DE000E946C0D81EC0E946C0D80E30E946C0DE1
:1010EE0088EE0E947C0D85E80E946C0D80E00E94C7
:1010FE006C0D88E70E946C0D8AEE0E947C0D80E0DC
:10110E000E946C0D80E00E946C0D8DEE0E947C0D95
:10111E0084E60E946C0D83E00E946C0D82E10E94B9
:10112E006C0D81E80E946C0D87EF0E947C0D80E2B1
:10113E000E946C0D80EC0E947C0D83E20E946C0D6F
:10114E0081EC0E947C0D80E10E946C0D85EC0E946A
:10115E007C0D8EE30E946C0D88E20E946C0D87EC74
:10116E000E947C0D86E80E946C0D86E30E947C0D29
:10117E0088E40E946C0D8AE30E947C0D85E50E9436
:10118E006C0D81EB0E947C0D80E00E946C0D88E15D
:10119E000E946C0D86EB0E947C0D88E00E946C0D07
:1011AE0082E80E946C0D87E20E946C0D82EF0E9415
:1011BE007C0D80E00E946C0D86E20E947C0D81E029
:1011CE000E946C0D80EE0E947C0D8FE00E946C0DD3
:1011DE0081E30E946C0D8BE20E946C0D8CE00E94EC
:1011EE006C0D8EE00E946C0D88E00E946C0D8EE4FA
:1011FE000E946C0D81EF0E946C0D87E30E946C0DB6
:10120E0087E00E946C0D80E10E946C0D83E00E94CD
:10121E006C0D8EE00E946C0D89E00E946C0D80E0DA
:10122E000E946C0D81EE0E947C0D80E00E946C0D80
:10123E008EE00E946C0D84E10E946C0D83E00E9492
:10124E006C0D81E10E946C0D87E00E946C0D81E3B4
:10125E000E946C0D81EC0E946C0D88E40E946C0D56
:10126E0088E00E946C0D8FE00E946C0D8CE00E9455
:10127E006C0D81E30E946C0D86E30E946C0D8FE075
:10128E000E946C0D81E10E947C0D2FEF8BED95E09D
:10129E00215080409040E1F700C0000089E20E949A
:0412AE007C0D089516
:1012B2003F924F925F926F927F928F929F92AF92E4
:1012C200BF92CF92DF92EF92FF920F931F93CF9331
:1012D200DF93E0913F01F09140018E179F0708F0E4
:1012E200A5C0E0913D01F0913E016E177F0708F025
:1012F2009DC0CE2CD12CF601EE0FFF1FEC0DFD1D73
:10130200EE0FFF1FE80FF91F31970AF48FC0F601A5
:10131200EE0FFF1FEE0FFF1FEE0FFF1FE60FF71F6F
:1013220031970AF483C028015901342E3B014C0144
:10133200F12C78C015E0F116B1F0832D90E0EC01AC
:10134200CC0FDD1FCC0FDD1FC80FD91FCF0DD11D54
:10135200F7FCDA95CE01DD0FAA0B88539F4FAF4FF2
:10136200FC01C49101C0C0E0D0E058C0C0FF29C058
:10137200F1E0EF120EC0A501B3016D0F711DD7FD93
:101382007A95C4018F0D911DF7FC9A950E94A00CCD
:1013920043C04E2D50E01D2F96011203B001139F42
:1013A200700D1124660D771D1F2D1203C001139FAE
:1013B200900D112485019A01880D991D0E94290A18
:1013C2002BC0A414B50441F121E0E2120EC0A20127
:1013D200B3016D0F711DD7FD7A95C4018F0D911D5B
:1013E200F7FC9A950E94A00C17C04E2D50E01D2FBD
:1013F20096011203B001139F700D1124660D771D23
:101402001F2D1203C001139F900D112482019A0116
:10141200880D991D0E94290AC695DF5FD8300CF409
:10142200A5CFF39425E02F150CF084CFDF91CF9157
:101432001F910F91FF90EF90DF90CF90BF90AF90F0
:101442009F908F907F906F905F904F903F90089504
:10145200CF92DF92EF92FF920F931F93CF93DF937E
:101462006A01790120913F0130914001821793076F
:1014720008F047C020913D0130913E016217730789
:1014820008F03FC09C01240F351F215031094091C3
:101492003F01509140012417350730F0C0903F01C1
:1014A200D0904001C81AD90A9B012E0D3F1D215030
:1014B200310940913D0150913E012417350730F02A
:1014C200E0903D01F0903E01E61AF70A9701260FDF
:1014D200371FA601480F591F2150310941505109A8
:1014E2000E94440C0BC0C8010E94950D219701C0B7
:1014F200E6012097C1F781E0E81AF108E114F1044E
:10150200B9F7DF91CF911F910F91FF90EF90DF908C
:04151200CF900895D9
:10151600FA01AA27283051F1203181F1E8946F931E
:101526006E7F6E5F7F4F8F4F9F4FAF4FB1E03ED0C4
:10153600B4E03CD0670F781F891F9A1FA11D680F62
:10154600791F8A1F911DA11D6A0F711D811D911D95
:10155600A11D20D009F468943F912AE0269F11240A
:101566003019305D3193DEF6CF010895462F47706E
:10157600405D4193B3E00FD0C9F7F6CF462F4F70C9
:10158600405D4A3318F0495D31FD4052419302D027
:10159600A9F7EACFB4E0A6959795879577956795CD
:1015A600BA95C9F700976105710508959B01AC01CD
:1015B6000A2E06945795479537952795BA95C9F7F4
:0C15C600620F731F841F951FA01D089565
:1015D200CF93C82F86E30E947C0D8C2F83708130BD
:1015E200B1F028F0823019F1833089F13FC088E4EC
:1015F2000E946C0D80EF90E09093400180933F0138
:1016020080E491E090933E0180933D012FC088E2F7
:101612000E946C0D80E491E09093400180933F0121
:1016220080EF90E090933E0180933D011FC088E8D7
:101632000E946C0D80EF90E09093400180933F01F7
:1016420080E491E090933E0180933D010FC088EECB
:101652000E946C0D80E491E09093400180933F01E1
:1016620080EF90E090933E0180933D01CF910895E9
:10167200EF920F931F938A30C1F48091160190E08C
:10168200880F991F880F991F880F991F20910201B7
:1016920030910301820F931F909303018093020103
:1016A20010921501109214012BC08D3049F1482F70
:1016B200E0901601009100011091010120911201A8
:1016C2003091130160910201709103018091140124
:1016D200909115010E9459098091160190E09C0198
:1016E200220F331F820F931F880F991F209114011D
:1016F20030911501820F931F90931501809314016D
:081702001F910F91EF90089573
:10170A00CF92DF92EF920F931F93CF93DF93E091E3
:10171A001B01F0911C01948191FF2DC06B01E82EF1
:10172A00D0E0C0E009E111E0F6018491E7FC808194
:10173A008823A1F0D80112966D917C911397DB0151
:10174A001996ED91FC911A970995892B11F0DFEF03
:10175A00CFEFBFEFCB1ADB0AEB0AE6CF60911B0192
:10176A0070911C01DB011996ED91FC911A978AE0A0
:10177A000995892B19F08FEF9FEF02C08D2F9C2FAF
:10178A00DF91CF911F910F91EF90DF90CF90089545
:10179A000F931F93CF93DF93FB01248121FD03C095
:1017AA008FEF9FEF2CC022FF16C0478150852581FD
:1017BA0036814217530744F4A081B1819D012F5FFE
:1017CA003F4F318320838C93278130852F5F3F4F92
:1017DA003087278314C08B01EC01FB010184F28559
:1017EA00E02D0995892BE1F6D80117968D919C91E8
:1017FA001897019618969C938E931797CE01DF91AE
:08180A00CF911F910F91089589
:10181200EF92FF920F931F93CF93DF938C0120914E
:101822003D0130913E0140913F01509140012150D4
:1018320031094150510960E070E080E090E00E947F
:10184200440CE12CF12C11C0C8010E94950D219687
:1018520002C0C0E0D0E080913D0190913E01C817E6
:10186200D90790F38FEFE81AF80A80913F0190911F
:101872004001E816F90668F3DF91CF911F910F91AD
:06188200FF90EF900895B5
:10188800DF92EF92FF920F931F93CF93DF93E82E8F
:10189800D92ED62F172F042FF52EC22F8AE20E9499
:1018A8007C0D8D2D0E946C0D8E2D0E946C0D8F2D40
:1018B8000E946C0D802F0E946C0D8BE20E947C0DA3
:1018C800812F0E946C0D8D2F0E946C0D8C2F0E9411
:1018D8006C0D8C2F0E946C0D8CE20E947C0DDF91A8
:0E18E800CF911F910F91FF90EF90DF90089528
:1018F6008BB180688BB92FEF83EC99E02150804043
:101906009040E1F700C000008BB18F778BB92FEFC5
:1019160083EC99E0215080409040E1F700C0000040
:101926008BB180688BB92FEF83EC99E02150804012
:0A1936009040E1F700C000000895A2
:10194000CF93DF9320913F0130914001821793079D
:1019500098F420913D0130913E016217730760F4C5
:10196000EA019B012F5F3F4FAC014F5F5F4F0E9429
:0E197000440CCE010E94950DDF91CF91089599
:10197E002F923F924F925F926F927F928F929F9291
:10198E00AF92BF92CF92DF92EF92FF920F931F937F
:10199E00CF93DF93CDB7DEB7CA1BDB0B0FB6F89430
:0819AE00DEBF0FBECDBF09949E
:1019B600CF92DF92EF926B01E82EA82FCB01411553
:1019C600510531F48C199D09EF90DF90CF90089561
:1019D600FC012491A7FD20812223A1F30196A11DDC
:0619E60041505109ECCF55
:1019EC002A88398848885F846E847D848C849B84A3
:1019FC00AA84B984C884DF80EE80FD800C811B81B1
:101A0C00AA81B981CE0FD11D0FB6F894DEBF0FBEDF
:061A1C00CDBFED010895AD
:101A2200A0E0B0E0E7E1FDE00C94CF0C9E012B5F5B
:101A32003F4FF9014191519161919F0180911B01A9
:0E1A420090911C010E940203E2E00C94060D3C
:101A5000809114019091150190930F0180930E01D4
:101A6000809102019091030190930D0180930C01EC
:021A70000895D7
:101A720080911401909115019093090180930801BE
:101A820080910201909103019093110180931001C2
:021A92000895B5
:101A9400809114019091150190930B0180930A0198
:101AA4008091020190910301909318018093170192
:021AB400089593
:101AB6008091140190911501909305018093040182
:101AC6008091020190910301909307018093060192
:021AD600089571
:101AD80095B1916095B995E09A95F1F7000095B1A7
:101AE8009D7F95B90E94C20D85B1826085B9089520
:101AF80095B19C7F95B99AE19A95F1F700C00E943B
:0A1B0800C20D85B1826085B9089511
:101B120084B18E6284B980E58CBD8DB581608DBD46
:081B220085B1826085B90895C8
:101B2A00CF93C82F892F0E946C0D8C2F0E946C0DA9
:041B3A00CF910895AA
:101B3E009093150180931401709303016093020139
:021B4E000895F8
:101B5000909313018093120170930101609300012F
:021B60000895E6
:101B62008FEF8AB98BB180688BB984B1816084B9F7
:021B72000895D4
:101B7400893028F4811101C081E080931601089511
:0A1B84008EBD0DB407FEFDCF0895DD
:061B8E000E94390B0895CE
:041B94000C940000AD
:0F1B9800000000000200000000C70D0000000068
:0F1BA700000000000200000000C70D0000000059
:021BB600F0003D
:021BB8004001EA
:00000001FF
