:100000000C9437000C945D040C945D040C945D0416
:100010000C945D040C945D040C945D040C945D04DC
:100020000C945D040C945D040C945D040C945D04CC
:100030000C945D040C945D040C945D040C945D04BC
:100040000C945D040C945D040C945D040C945D04AC
:100050000C945D040C945D040C945D040C945D049C
:100060000C945D040C945D040100010680001124D1
:100070001FBECFEFD8E0DEBFCDBFE8E6F0E040E046
:1000800017C0B591A59135912591059107FD0CC03B
:1000900095918591EF01F92FE82F05900D92A21708
:1000A000B307D9F7FE0104C01D92A217B307E1F709
:1000B000ED36F40731F70E9489030C945F00F89441
:0200C000FFCF70
:0800C200516B6F00716B6F00C0
:1000CA002F923F924F926F927F928F929F92AF920E
:1000DA00BF92CF92DF92EF92FF920F931F93CF932B
:1000EA00DF93CDB7DEB762970FB6F894DEBF0FBEC7
:1000FA00CDBF6C013A01862E7901FC011086178268
:10010A00848181FFE7C19E012F5F3F4F3D872C8786
:10011A00C901A0E8888B998BAA8B9FE3992EF301DA
:10012A00849187FC8081882309F4D0C1482D9301EA
:10013A002F5F3F4F4F4F853219F03901842E0AC085
:10014A00F901849147FD808192E0690E711C811C3E
:10015A00853229F4B60190E00E94E702E0CFB12C83
:10016A0000E010E01032A0F48B3269F030F48032F3
:10017A0059F0833269F410612CC08D3239F0803322
:10018A0039F4116026C01260146023C0186021C0BF
:10019A0017FD29C090ED980F9A3078F416FF06C023
:1001AA00AAE0BA9E900D1124B92E13C0EAE00E9F60
:1001BA00900D1124092F10620CC08E3221F416FD05
:1001CA0085C1106406C08C3611F4106802C08836E6
:1001DA0051F4F301849187FC8081FFEF6F1A7F0A43
:1001EA008F0A8111BFCF982F9F7D9554933028F4A1
:1001FA0024E0E20EF11C99820FC0833631F0833776
:10020A0091F0833509F063C027C0F70180818983A3
:10021A0097012E5F3F4F7901288839884A88AA2496
:10022A00A394B12C17C0A7014D5F5F4F5F874E871C
:10023A00F70120803180428016FF03C04B2D50E029
:10024A0002C04FEF5FEF842DB1010E9410045C01E0
:10025A00EE84FF841F7718C097012D5F3F4F3F87B9
:10026A002E87F70120803180428016FF03C04B2D74
:10027A0050E002C04FEF5FEF842DB1010E941004DD
:10028A005C011068EE84FF8413FD1DC0802F90E08E
:10029A00A816B906C0F4B60180E290E00E94E7020F
:1002AA000150F4CFF101849147FC8081FFEF2F1AAE
:1002BA003F0A4F0AB60190E00E94E702011101507D
:1002CA0021E0A21AB108A114B10461F7F5C084367D
:1002DA0011F0893671F5F70117FF08C06081718145
:1002EA008281938197012C5F3F4F09C060817181A0
:1002FA00072E000C880B990B97012E5F3F4F79014F
:10030A001F76312E97FF0AC090958095709561955A
:10031A007F4F8F4F9F4F312F3068332E2AE030E0C6
:10032A00AE014F5F5F4F0E948902482E4C85441AE6
:10033A004AC0853729F41F7EA12E2AE030E025C065
:10034A00512F597FA52E8F36C1F018F4883579F0D0
:10035A00BDC0803719F0883721F0B8C0852F806179
:10036A00A82EA4FE0DC09A2D9460A92E09C014FFD0
:10037A000AC0A52FA660AA2E06C028E030E005C054
:10038A0020E130E002C020E132E0F701A7FE08C018
:10039A006081718182819381A7014C5F5F4F07C0A1
:1003AA006081718180E090E0A7014E5F5F4F7A0122
:1003BA00AE014F5F5F4F0E948902482E5C85451A45
:1003CA008A2D8F77382E36FE0DC0932D9E7FA92E4B
:1003DA004B1458F434FE0BC032FC09C0A32DAE7E78
:1003EA00AA2E05C0142DA32C03C0142D01C01B2D49
:1003FA00A4FE0EC0FE01E40DF11D8081803321F4BC
:10040A00EA2DE97EAE2E08C0A2FE05C01E5F04C01A
:10041A008A2D867809F01F5FA3FC11C0A0FE06C0D2
:10042A00101788F4040DB02EB11A0EC0101760F41C
:10043A00B60180E290E00E94E7021F5FF7CF101733
:10044A0018F4011B02C0B42C00E0A4FE10C0B601CF
:10045A0080E390E00E94E702A2FE17C0A1FC03C05D
:10046A0088E790E002C088E590E0B6010CC08A2DCA
:10047A00867859F0A1FE02C08BE201C080E2A7FC97
:10048A008DE2B60190E00E94E7024B1438F4B601FF
:10049A0080E390E00E94E702BA94F7CF4A94E1E041
:1004AA00F0E0EC0FFD1FE40DF11D8081B60190E034
:1004BA000E94E7024110F2CF002309F430CEB601C0
:1004CA0080E290E00E94E7020150F6CFF6018781B0
:1004DA00908502C08FEF9FEF62960FB6F894DEBF49
:1004EA000FBECDBFDF91CF911F910F91FF90EF907B
:1004FA00DF90CF90BF90AF909F908F907F906F903A
:08050A004F903F902F900895DF
:10051200FA01AA27283051F1203181F1E8946F9332
:100522006E7F6E5F7F4F8F4F9F4FAF4FB1E03ED0D8
:10053200B4E03CD0670F781F891F9A1FA11D680F76
:10054200791F8A1F911DA11D6A0F711D811D911DA9
:10055200A11D20D009F468943F912AE0269F11241E
:100562003019305D3193DEF6CF010895462F477082
:10057200405D4193B3E00FD0C9F7F6CF462F4F70DD
:10058200405D4A3318F0495D31FD4052419302D03B
:10059200A9F7EACFB4E0A6959795879577956795E1
:1005A200BA95C9F700976105710508959B01AC01E1
:1005B2000A2E06945795479537952795BA95C9F708
:0C05C200620F731F841F951FA01D089579
:1005CE000F931F93CF93DF93FB01248121FD03C073
:1005DE008FEF9FEF2CC022FF16C0478150852581DB
:1005EE0036814217530744F4A081B1819D012F5FDC
:1005FE003F4F318320838C93278130852F5F3F4F70
:10060E003087278314C08B01EC01FB010184F28536
:10061E00E02D0995892BE1F6D80117968D919C91C5
:10062E001897019618969C938E931797CE01DF918B
:08063E00CF911F910F91089567
:1006460095B19F70282F207F922B95B995B19E7FEB
:1006560095B995B1926095B932E03A95F1F700C037
:1006660095B19D7F95B9EFE8F1E03197F1F700C0BC
:10067600000025B1F0E18F9FC0011124922F9F70D9
:10068600892B85B985B1826085B932E03A95F1F753
:1006960000C085B18D7F85B98FE99FE00197F1F79D
:0606A60000C000000895F1
:1006AC0095B19F70282F207F922B95B995B19160B1
:1006BC0095B995B1926095B932E03A95F1F700C0D1
:1006CC0095B19D7F95B9EFE8F1E03197F1F700C056
:1006DC00000025B1F0E18F9FC0011124922F9F7073
:1006EC00892B85B985B1826085B932E03A95F1F7ED
:1006FC0000C085B18D7F85B98FE99FE00197F1F737
:06070C0000C0000008958A
:100712008FEF84B90E94D60380E285B92FEF89E674
:1007220098E1215080409040E1F700C0000015B8E8
:100732002FEF89E698E1215080409040E1F700C018
:10074200000082EC90E0A0E0AF939F938F930E9411
:1007520046048CE00E94230366EC70E080E00E9475
:0A076200B6030F900F900F90D7CF51
:10076C00CF92DF92EF92CF93DF936B01E82EC0E034
:10077C00D0E003C00E9456032196AE2DC6018C0F0B
:10078C009D1FA11DD7FDAA95FC018491A7FD808119
:10079C008111F0CFDF91CF91EF90DF90CF90089542
:1007AC008FEF84B98FE39CE90197F1F700C000004B
:1007BC0082E00E94230388E20E9423038CE00E94C3
:1007CC00230386E00E94230381E00E9423038FE928
:0C07DC009FE00197F1F700C000000895B5
:1007E8002F923F924F925F926F927F928F929F9239
:1007F800AF92BF92CF92DF92EF92FF920F931F9327
:10080800CF93DF93CDB7DEB7CA1BDB0B0FB6F894D7
:08081800DEBF0FBECDBF099445
:10082000CF92DF92EF926B01E82EA82FCB014115FA
:10083000510531F48C199D09EF90DF90CF90089508
:10084000FC012491A7FD20812223A1F30196A11D83
:0608500041505109ECCFFC
:100856002A88398848885F846E847D848C849B844A
:10086600AA84B984C884DF80EE80FD800C811B8158
:10087600AA81B981CE0FD11D0FB6F894DEBF0FBE87
:06088600CDBFED01089555
:10088C00A0E0B0E0ECE4F4E00C9404049E012B5FD7
:10089C003F4FF9014191519161919F01809102016A
:0E08AC00909103010E946500E2E00C943B0471
:0408BA000C9400009A
:00000001FF
